S00C00006770696F2E7372656369
S11300000C942A000C9447000C9447000C94C502ED
S11300100C9447000C9447000C9447000C94470040
S11300200C9447000C9447000C9447000C944C0229
S11300300C9447000C9447000C9447000C94470020
S11300400C9447000C9447000C9447000C94470010
S11300500C94470011241FBECFE5D8E0DEBFCDBF0E
S113006010E0A0E6B0E0E8E2F8E002C005900D92EE
S1130070A636B107D9F720E0A6E6B0E001C01D928C
S1130080A237B207E1F70E944A020C9412040C94BE
S11300900000882319F08130F1F51FC04FEF64E0B0
S11300A083E00E9472014FEF68E083E00E947201D6
S11300B04FEF60E183E00E94720140E064E083E07E
S11300C00E94A20140E068E083E00E94A20140E0B7
S11300D060E183E00E94A20108954FEF60E483E0B1
S11300E00E9472014FEF60E883E00E9472014FEFBB
S11300F060E283E00E94720140E060E483E00E94D9
S1130100A20140E060E883E00E94A20140E060E2D6
S113011083E00E94A2010895882321F0813009F030
S11301204FC028C0613029F0D0F0623009F048C0D7
S11301300BC04FEF64E083E00E94A20140E068E05E
S113014083E00E94A201089540E064E083E00E94FD
S1130150A2014FEF68E083E00E94A201089540E00D
S113016064E083E00E94A20140E068E083E00E9432
S1130170A2010895613021F0C8F0623009F50BC086
S11301804FEF60E483E00E94A20140E060E883E076
S11301900E94A201089540E060E483E00E94A2016D
S11301A04FEF60E883E00E94A201089540E060E41C
S11301B083E00E94A20140E060E883E00E94A20183
S11301C0089548EC50E060E070E00E941101089549
S11301D0AF92CF92DF92EF92FF920F931F93A12CD5
S11301E0C12CD12CE12CF12C00E010E020E030E017
S11301F044E060E070EA88E091E00E949E034FEFE3
S113020060E183E00E9472014FEF60E283E00E94AC
S113021072011F910F91FF90EF90DF90CF90AF90FC
S113022008952FEF829FC001112464E670E00E94BC
S1130230EA037BBD6ABD79BD68BD0895813089F04C
S113024028F08230C9F0833061F521C04FEF60E1BE
S113025081E00E94720140E060E181E00E94A2011D
S113026008954FEF60E281E00E94720140E060E295
S113027081E00E94A20108954FEF60E481E00E94B2
S1130280720140E060E481E00E94A20108954FEF12
S113029060E881E00E94720140E060E881E00E9431
S11302A0A2010895813061F028F0823079F0833022
S11302B0C1F412C040E060E181E00E94A20108950F
S11302C040E060E281E00E94A201089540E060E421
S11302D081E00E94A201089540E060E881E00E946C
S11302E0A2010895813081F028F08230B9F0833082
S11302F041F51EC08AB3962F909589238ABB8AB391
S11303006423682B6ABB089587B3962F909589233D
S113031087BB87B36423682B67BB089584B3962F88
S11303209095892384BB84B36423682B64BB0895AC
S113033081B3962F9095892381BB81B36423682B65
S113034061BB0895813081F028F08230B9F08330A8
S113035041F51EC08BB3962F909589238BBB8BB32D
S11303606423682B6BBB089588B3962F90958923DB
S113037088BB88B36423682B68BB089585B3962F24
S11303809095892385BB85B36423682B65BB089549
S113039082B3962F9095892382BB82B36423682B02
S11303A062BB08954FEF62E080E00E94720180E03A
S11303B00E941E0181E00E941E0182E00E941E0133
S11303C083E00E941E0180E00E94520181E00E94AD
S11303D0520182E00E94520183E00E94520183E0B4
S11303E00E947D030E9495030E94E80080E00E9421
S11303F0490081E00E94490080E50E94E1008FB736
S113040080688FBFCAE3D0E04FEF62E080E00E94D3
S1130410A20161E070E080E090E00E941D0340E0F2
S113042062E080E00E94A2018091610020E1829F4D
S1130430C0011124BE010E94EA03162F08B606FC6F
S113044002C0603148F04FEF60EF81E00E94A201EA
S113045088B7806488BF04C0862F8295807F88BB5C
S11304601D3048F061E080E00E948C0061E081E092
S11304700E948C0008C060E080E00E948C0060E074
S113048081E00E948C0060E570E080E090E00E94D2
S11304901D03BACF0E94D2011F920F920FB60F9282
S11304A011242F933F934F935F936F937F938F9375
S11304B09F93AF93BF93EF93FF9380916B009091C1
S11304C06C00A0916D00B0916E000097A105B1057C
S11304D069F440E06091630083E00E94A20140E07F
S11304E06091620083E00E94A2013EC084369105BF
S11304F0A105B10569F44FEF6091630083E00E94A8
S1130500A2014FEF6091620083E00E94A2012CC01F
S113051080916600811115C04FEF6091630083E004
S11305200E94A2014FEF6091620083E00E94A20149
S113053080916B00880F809582BF81E08093660074
S113054013C040E06091630083E00E94A20140E098
S11305506091620083E00E94A20180916B00880F89
S1130560895C82BF10926600FF91EF91BF91AF91B9
S11305709F918F917F916F915F914F913F912F91B7
S11305800F900FBE0F901F9018951F920F920FB6E9
S11305900F9211242F933F934F935F936F937F9305
S11305A08F939F93AF93BF93EF93FF9380916700D3
S11305B090916800A0916900B0916A000196A11D14
S11305C0B11D8093670090936800A0936900B09375
S11305D06A008091670090916800A0916900B091D1
S11305E06A0086BD80916000823061F08330A1F49E
S11305F014BC0E94E00382E00E94710382E08093B5
S113060060000AC084B5809361000E94E60383E021
S1130610809360000E947103FF91EF91BF91AF91AD
S11306209F918F917F916F915F914F913F912F9106
S11306300F900FBE0F901F9018958F929F92AF92BC
S1130640BF92EF92FF920F931F93CF93DF9300D04B
S113065000D0CDB7DEB719821A821B821C826115C5
S113066071058105910519F52DC089809A80AB80AB
S1130670BC80AFEF8A1A9A0AAA0ABA0A89829A82B5
S1130680AB82BC822150310981F74150510911F0EC
S11306909F01EBCF0F5F1F4F4801AA2497FCA09442
S11306A0BA2C86169706A806B90650F00BC000E0CF
S11306B010E00F2EF3E1EF2EF12CF02DE0E1F0E04D
S11306C0A701E6CF0F900F900F900F90DF91CF917D
S11306D01F910F91FF90EF90BF90AF909F908F90DC
S11306E00895823031F0833039F484B7806484BF54
S11306F0089584B78F7B84BF0895CF92EF920F93B0
S1130700C12CE12C00E020E046E060E080E00E94A3
S1130710C90340E060E183E00E94720183E00E942B
S113072071030F91EF90CF90089583E08093600060
S1130730109261008BB780628BBF0895AF92EF92E5
S1130740FF920F931F93EEB5FFB5E82BF92BFFBD76
S1130750EEBDEEB5FFB56E2B7F2B7FBD6EBD6EB5C6
S11307607FB5642B7FBD6EBD59B7A52AA9BE3DBD1B
S11307702CBD1BBD0ABDF9BCE8BC4093640090933A
S1130780700080936F001F910F91FF90EF90AF90D6
S11307900895CF920F9395B5982B95BD95B5692B78
S11307A065BD95B5942B95BD99B7C92AC9BE24BD1D
S11307B003BD40936500809371000F91CF9008951D
S11307C095B580916500892B85BD089585B5887F91
S11307D085BD089597FB072E16F4009407D077FD86
S11307E009D00E94FE0307FC05D03EF49095819544
S11307F09F4F0895709561957F4F0895AA1BBB1B69
S113080051E107C0AA1FBB1FA617B70710F0A61B0C
S1130810B70B881F991F5A95A9F780959095BC012D
S10B0820CD010895F894FFCF07
S109082803072010010487
S9030000FC
