:100000000C942A000C9447000C9447000C94570160
:100010000C9447000C9447000C9447000C94470044
:100020000C9447000C9447000C9447000C94470034
:100030000C9447000C9447000C9447000C94470024
:100040000C9447000C9447000C9447000C94470014
:100050000C94470011241FBECFE5D8E0DEBFCDBF12
:1000600010E0A0E6B0E0E6EFF4E002C005900D92EB
:10007000A436B107D9F720E0A4E6B0E001C01D9294
:10008000A936B207E1F70E9455010C9479020C944D
:100090000000813089F028F08230C9F0833061F5AA
:1000A00021C04FEF60E181E00E949D0040E060E1EF
:1000B00081E00E94CD0008954FEF60E281E00E9450
:1000C0009D0040E060E281E00E94CD0008954FEF86
:1000D00060E481E00E949D0040E060E481E00E94D5
:1000E000CD0008954FEF60E881E00E949D0040E060
:1000F00060E881E00E94CD000895813061F028F031
:10010000823079F08330C1F412C040E060E181E0D8
:100110000E94CD00089540E060E281E00E94CD00A1
:10012000089540E060E481E00E94CD00089540E041
:1001300060E881E00E94CD000895813081F028F0D0
:100140008230B9F0833041F51EC08AB3962F909566
:1001500089238ABB8AB36423682B6ABB089587B35B
:10016000962F9095892387BB87B36423682B67BB41
:10017000089584B3962F9095892384BB84B3642318
:10018000682B64BB089581B3962F9095892381BB1A
:1001900081B36423682B61BB0895813081F028F01E
:1001A0008230B9F0833041F51EC08BB3962F909505
:1001B00089238BBB8BB36423682B6BBB089588B3F7
:1001C000962F9095892388BB88B36423682B68BBDE
:1001D000089585B3962F9095892385BB85B36423B5
:1001E000682B65BB089582B3962F9095892382BBB7
:1001F00082B36423682B62BB089583E00E940F02E0
:100200004FEF62E080E00E949D0080E00E94490084
:1002100081E00E94490082E00E94490083E00E9440
:10022000490080E00E947D0081E00E947D0082E024
:100230000E947D0083E00E947D000E9427028FB70C
:1002400080688FBFCAE3D0E04FEF62E080E00E9499
:10025000CD0061E070E080E090E00E94AF0140E0FE
:1002600062E080E00E94CD008091610008B606FC4B
:1002700009C020E1829FC0011124BE010E945102E9
:10028000603148F04FEF60EF81E00E94CD0088B709
:10029000806488BF03C06295607F68BB68E572E0D8
:1002A00080E090E00E94AF01CFCF0E94FD001F923E
:1002B0000F920FB60F9211242F933F934F935F939A
:1002C0006F937F938F939F93AF93BF93EF93FF931E
:1002D0008091640090916500A0916600B0916700E4
:1002E0000196A11DB11D8093640090936500A093B9
:1002F0006600B09367008091640090916500A091C2
:100300006600B091670086BD80916000823061F028
:100310008330A1F414BC0E94470282E00E940302D1
:1003200082E0809360000AC084B5809361000E94DF
:100330004D0283E0809360000E940302FF91EF91E1
:10034000BF91AF919F918F917F916F915F914F91ED
:100350003F912F910F900FBE0F901F9018958F9285
:100360009F92AF92BF92EF92FF920F931F93CF9302
:10037000DF9300D000D0CDB7DEB719821A821B827E
:100380001C82611571058105910519F52DC08980C3
:100390009A80AB80BC80AFEF8A1A9A0AAA0ABA0A7E
:1003A00089829A82AB82BC822150310981F7415007
:1003B000510911F09F01EBCF0F5F1F4F4801AA2495
:1003C00097FCA094BA2C86169706A806B90650F09A
:1003D0000BC000E010E00F2EF3E1EF2EF12CF02D1A
:1003E000E0E1F0E0A701E6CF0F900F900F900F90A3
:1003F000DF91CF911F910F91FF90EF90BF90AF9041
:100400009F908F900895823031F0833039F484B713
:10041000806484BF089584B78F7B84BF0895CF9292
:10042000EF920F93C12CE12C00E020E046E060E069
:1004300080E00E94300240E060E183E00E949D0085
:1004400083E00E9403020F91EF90CF90089583E024
:1004500080936000109261008BB780628BBF08951B
:10046000CF920F9395B5982B95BD95B5692B65BD2A
:1004700095B5942B95BD99B7C92AC9BE24BD03BDB6
:1004800040936200809368000F91CF90089595B5D6
:1004900080916200892B85BD089585B5887F85BDD3
:1004A000089597FB072E16F4009407D077FD09D026
:1004B0000E94650207FC05D03EF4909581959F4F00
:1004C0000895709561957F4F0895AA1BBB1B51E15C
:1004D00007C0AA1FBB1FA617B70710F0A61BB70BB4
:1004E000881F991F5A95A9F780959095BC01CD0159
:0604F0000895F894FFCF0F
:0404F60003070400F4
:00000001FF
